:020000040000FA
:100000000C9430020C9458020C9458020C94580230
:100010000C9458020C9458020C9458020C945802F8
:100020000C9458020C9458020C9458020C945802E8
:100030000C9458020C9458020C9458020C945802D8
:100040000C94F5210C9458020C94C3210C949D211E
:100050000C9458020C9458020C9458020C945802B8
:100060000C943F220C94580200407A10F35A00A0DE
:10007000724E18090010A5D4E80000E87648170071
:1000800000E40B54020000CA9A3B000000E1F505B1
:10009000000080969800000040420F000000A086FB
:1000A00001000000102700000000E803000000002D
:1000B0006400000000000A000000000001000000D1
:1000C00000002C76D888DC674F0823DFC1DFAE59EB
:1000D000E1B1B796E5E3E453C63AE651997696E87E
:1000E000E6C28426EB898C9B62ED407C6FFCEFBC02
:1000F0009C9F40F2BAA56FA5F490055A2AF75C932D
:100100006B6CF9676DC11BFCE0E40D47FEF520E662
:10011000B500D0ED902E0300943577050080841E45
:10012000080000204E0A000000C80C333333330FA0
:10013000986E12831141EF8D2114893BE65516CF3D
:10014000FEE6DB18D1844B381BF77C1D901DA4BB49
:10015000E424203284725E228100C9F124ECA1E5FE
:100160003D275D2000626C6E6B696E66007665727D
:1001700000312E312E3000682D62656174003435F7
:1001800000627566662D696E0032353600646576EC
:100190000041726475696E6F20556E6F00637075F3
:1001A0000041546D6567613332385000636F6E00F3
:1001B00057353130300066772D7479706500544DB5
:1001C000504C546F6C7358696D46006275696C646D
:1001D0000041756720313220323032322030313ADE
:1001E00030333A34310000000D0A202020205F5FB8
:1001F0005F20205F5F202020202020202020205F03
:100200005F0D0A2020202F205F20292F202F5F2024
:100210005F5F5F5F5F20202F202F5F5F0D0A202030
:100220002F205F20202F202F202F2F202F205F20F6
:100230005C2F2020275F2F0D0A202F5F5F5F5F2F2D
:100240005F2F5C5F2C202F5F2F2F5F2F5F2F5C5F56
:100250005C0D0A20202020202020202F5F5F5F2FB0
:100260002076312E312E30206F6E204172647569F8
:100270006E6F20556E6F0D0A0D0A20235374616E48
:100280006457697468556B7261696E65202020201F
:1002900068747470733A2F2F6269742E6C792F739F
:1002A0007775610D0A0D0A00000000002500280086
:1002B0002B0000000000240027002A0049503A00CB
:1002C00044484350204661696C6564210047657469
:1002D00074696E672049502E2E2E00436F6E6E6536
:1002E0006374696E6720746F2000436F6E6E656380
:1002F00074696E6720746F20006D73292E0052653B
:10030000616479202870696E673A2000000000005F
:100310002300260029000404040404040404020247
:100320000202020203030303030301020408102074
:10033000408001020408102001020408102000007F
:100340000008000201000003040700000000000094
:1003500000005B025B025B025B025B025B025B0212
:100360005B025B025B025B025B025B025B025B02A5
:100370005B025B025B025B025B025B025B025B0295
:100380005B025B025B025B025B025B025B025B0285
:100390005B02EF0A5A02CB0A5A025A025A025A0266
:1003A0005A025A025A025A025A025A025A025A026D
:1003B0005A025A025A025A025A025A025A025A025D
:1003C0005A025A025A025A025A025A025A025A024D
:1003D0005A02496E76616C696420485720636D64E7
:1003E0003A20005365727665723A2000526564695E
:1003F00072656374696E6720746F20005265616472
:1004000079005061636B657420746F6F2062696757
:100410003A2000436F6E6E656374206661696C6597
:10042000642E20636F64653A2000496E76616C69C2
:1004300064206175746820746F6B656E004C6F6723
:10044000696E2074696D656F7574004865617274BA
:10045000626561742074696D656F75740000FD23B9
:1004600011241FBECFEFD8E0DEBFCDBF12E0A0E069
:10047000B1E0ECE2FBE602C005900D92A237B107B5
:10048000D9F726E0A2E7B2E001C01D92A335B2077A
:10049000E1F712E0C0E3D2E004C02197FE010E9420
:1004A0009534CF32D107C9F70E94E8240C949435D3
:1004B0000C940000089508958CBD9DBD089520E31F
:1004C000FC0120833296862F82958F706F706A3080
:1004D00030F4605D6293682F8111F5CF0895695CF7
:1004E000F9CFFC01818D928D0895089508950895A6
:1004F000DC01ED91FC910190F081E02D0994AF9227
:10050000BF92CF92DF92EF92FF920F931F93CF9300
:10051000DF936C017B018B01040F151FEB015E0162
:10052000AE18BF08C017D10759F06991D601ED91F7
:10053000FC910190F081E02DC6010995892B79F796
:10054000C501DF91CF911F910F91FF90EF90DF9048
:10055000CF90BF90AF900895FC01538D448D252F0F
:1005600030E0842F90E0821B930B541710F0CF964D
:10057000089501970895FC01918D828D981761F07F
:10058000A28DAE0FBF2FB11D5D968C91928D9F5F96
:100590009F73928F90E008958FEF9FEF0895FC0175
:1005A000918D828D981731F0828DE80FF11D858D28
:1005B00090E008958FEF9FEF0895FC01918D228DBB
:1005C000892F90E0805C9F4F821B91098F73992740
:1005D000089581EC93E00E94DD0221E0892B09F46B
:1005E00020E0822F089580E090E0892B29F00E947E
:1005F000E90281110C9400000895FC01A48DA80F5C
:10060000B92FB11DA35ABF4F2C91848D90E0019654
:100610008F739927848FA689B7892C93A089B18974
:100620008C91837080648C93938D848D981306C015
:100630000288F389E02D80818F7D80830895EF9279
:10064000FF920F931F93CF93DF93EC0181E0888F8C
:100650009B8D8C8D98131AC0E889F989808185FF5C
:1006600015C09FB7F894EE89FF896083E889F989FE
:1006700080818370806480839FBF81E090E0DF9100
:10068000CF911F910F91FF90EF900895F62E0B8D53
:1006900010E00F5F1F4F0F731127E02E8C8D8E110E
:1006A0000CC00FB607FCFACFE889F989808185FF75
:1006B000F5CFCE010E94FD02F1CFEB8DEC0FFD2FA7
:1006C000F11DE35AFF4FF0829FB7F8940B8FEA8930
:1006D000FB8980818062CFCF0F931F93CF93DF93ED
:1006E0008C01D0E0C0E0F801EC0FFD1F649166239F
:1006F00041F081EC93E00E941F03892B11F02196B9
:10070000F2CFCE01DF91CF911F910F910895CF933A
:10071000DF93EC01888D8823B9F0AA89BB89E88929
:10072000F9898C9185FD03C0808186FD0DC00FB6CF
:1007300007FCF7CF8C9185FFF2CF808185FFEDCF4D
:10074000CE010E94FD02E9CFDF91CF910895833061
:1007500081F028F4813099F08230A9F00895873033
:10076000A9F08830C9F08430B1F4809180008F7D89
:1007700003C0809180008F7780938000089584B5B6
:100780008F7784BD089584B58F7DFBCF8091B000B5
:100790008F778093B00008958091B0008F7DF9CF5E
:1007A0001F93CF93DF93282F30E0F901E25CFC4FD9
:1007B0008491F901E65DFC4FD491F901EA5EFC4FAA
:1007C000C491CC23A9F0162F81110E94A703EC2F0E
:1007D000F0E0EE0FFF1FE855FD4FA591B4918FB7E4
:1007E000F894EC91111108C0D095DE23DC938FBFF3
:1007F000DF91CF911F910895DE2BF8CF682F84E011
:100800000C94D003682F85E00C94D003CF93DF9332
:1008100090E0FC01E65DFC4F24918A5E9C4FFC0158
:1008200084918823C9F090E0880F991FFC01EE5451
:10083000FD4FA591B491FC01E855FD4FC591D491B0
:1008400061110DC09FB7F8948C91209582238C93F1
:100850008881282328839FBFDF91CF91089562303C
:1008600051F49FB7F8943C91822F809583238C9309
:10087000E8812E2BEFCF8FB7F894EC912E2B2C9391
:100880008FBFEACF1F93CF93DF93182FEB0161E067
:100890000E940604209739F460E0812FDF91CF9108
:1008A0001F910C94D003CF3FD10511F461E0F5CF37
:1008B000E12FF0E0E25CFC4FE491E33031F140F4F1
:1008C000E130B1F0E230E1F0C038D1057CF7E4CF9F
:1008D000E73029F1E83059F1E430B1F78091800038
:1008E000806280938000D0938B00C0938A0004C004
:1008F00084B5806884BDC7BDDF91CF911F910895F5
:1009000084B5806284BDC8BDF7CF809180008068C7
:1009100080938000D0938900C0938800EDCF8091B0
:10092000B00080688093B000C093B300E5CF8091A1
:10093000B00080628093B000C093B400DDCF8E30F1
:1009400008F08E508770806480937C0080917A00DC
:10095000806480937A0080917A0086FDFCCF80913C
:1009600078009091790008953FB7F8948091290319
:1009700090912A03A0912B03B0912C0326B5A89B3C
:1009800005C02F3F19F00196A11DB11D3FBFBA2F21
:10099000A92F982F8827BC01CD01620F711D811DE1
:1009A000911D42E0660F771F881F991F4A95D1F766
:1009B00008958F929F92AF92BF92CF92DF92EF9263
:1009C000FF926B017C010E94B4044B015C01C114D5
:1009D000D104E104F104B9F00E94B4046819790962
:1009E0008A099B09683E73408105910580F321E0E7
:1009F000C21AD108E108F10888EE880E83E0981E3B
:100A0000A11CB11CE4CFFF90EF90DF90CF90BF907E
:100A1000AF909F908F9008952FB7F8946091250321
:100A20007091260380912703909128032FBF08958A
:100A30004F925F926F927F92AF92BF92CF92DF926E
:100A4000EF92FF920F931F93CF93DF93EC016B0113
:100A50007B01E40EF51E8B015801AC18BD080E1584
:100A60001F0511F10E940C05688779878A879B878B
:100A7000E881F9810284F385E02DCE01099597FF85
:100A800023C00E940C05488459846A847B846419BD
:100A90007509860997094C805D806E807F8064159A
:100AA00075058605970520F3C501DF91CF911F914C
:100AB0000F91FF90EF90DF90CF90BF90AF907F901D
:100AC0006F905F904F900895F80181938F01C4CF8C
:100AD0002091B302260F3327331F21323105ECF466
:100AE0002091FC02FC0190E080E0243069F082E07B
:100AF0000895A091B3022191AC014D565D4FA40F12
:100B0000B52FB11D2C930196861798F38091B302EF
:100B1000680F6093B30280E0089581E00895109219
:100B2000FC0281E08093FB021092D60261E082E138
:100B30000E94D00361E083E10E94D003E9EBF0E082
:100B400080818E7F808380818D7F808388E4809305
:100B5000B80085E48093BC000895CF93DF9391E0C3
:100B6000909392028823B9F0C091B800D091BA0056
:100B70008091BC008A7B8093BC0060E082E10E948F
:100B8000D00360E083E10E94D0030E948F05D093E0
:100B9000BA00C093B800DF91CF910895E091A2030D
:100BA0008091A103E81730F4F0E0EE58FD4F80810A
:100BB00090E008958FEF9FEF08959091A2038091A8
:100BC000A1032FEF3FEF981748F4E92FF0E0EE581C
:100BD000FD4F208130E09F5F9093A203C9010895EB
:100BE0008091A1039091A203891B990B0895CF9244
:100BF000DF92EF92FF920F931F93CF93DF937C01CD
:100C0000CB018A0120910203222389F0EB016B01C1
:100C1000C40ED51ECC15DD0569F06991D701ED91A3
:100C2000FC910190F081E02DC7010995F3CF642F6D
:100C30000E946805C801DF91CF911F910F91FF902D
:100C4000EF90DF90CF900895CF93DF931F92CDB7B1
:100C5000DEB76983209102032223F9F020919F03DC
:100C6000203258F021E030E0FC013383228390E011
:100C700080E00F90DF91CF9108958091A003E82F3D
:100C8000F0E0ED5FFC4F998190838F5F8093A0032C
:100C900080939F0381E090E0ECCF61E0CE0101966C
:100CA0000E946805F7CFCF92DF92EF92FF920F93E9
:100CB0001F93CF93DF93FC01C48121E020930203B3
:100CC000C09323031092A00310929F038385682B87
:100CD0008EE594E00E942406D0919F03D13208F063
:100CE00092C00E94B4046B017C018091FC028111CE
:100CF00065C082E08093FC0281E08093FB028FEF6D
:100D00008093FA021092F902D093F802A3E0B3E0C4
:100D1000E8EDF2E080E0D81385C01092D702809110
:100D2000D702CC0FC82BC093D7028091D602813056
:100D300009F07CC01092D6020E94B4046B017C01C1
:100D40008091D7028093BB008091FE029091FF02B8
:100D5000A0910003B0910103892B8A2B8B2B99F072
:100D60000E94B4040091FE021091FF022091000342
:100D7000309101036C197D098E099F090617170729
:100D800028073907E0F18091BC0083FDD9CF85ECBD
:100D90008093BC000E94B4046B017C018091FC0232
:100DA000823009F445C08091FA028F3F61F1809151
:100DB000FA02803241F18091FA0225C08091FE0250
:100DC0009091FF02A0910003B0910103892B8A2B1F
:100DD0008B2B09F48ACF0E94B4040091FE0210917B
:100DE000FF0220910003309101036C197D098E09E7
:100DF0009F09061717072807390708F076CF809153
:100E0000FD020E94AD051092A00310929F03109264
:100E10000203DF91CF911F910F91FF90EF90DF9030
:100E2000CF9008959D9191938F5F75CF85EEB0CF50
:100E30008091FE029091FF02A0910003B091010306
:100E4000892B8A2B8B2B09F4A9CF0E94B404009123
:100E5000FE021091FF0220910003309101036C19F2
:100E60007D098E099F09061717072807390708F01B
:100E700095CFC5CFFC0120812EBD9B0121503109AA
:100E800041F051810DB407FEFDCF4EB55EBD4193DB
:100E9000F5CF61507109860F971F0DB407FEFDCF86
:100EA0002EB5FC0120830895E0912E03F0912F03CD
:100EB000808190912D03892B80830895E0912E03EA
:100EC000F0912F03908180912D0380958923808359
:100ED00008958EBD00000DB407FEFDCF8EB50895B8
:100EE000AF92BF92CF92DF92EF92FF920F931F9338
:100EF000CF93DF93CDB7DEB728970FB6F894DEBF58
:100F00000FBECDBF8C017B016A018091C00383338A
:100F1000E1F45801A40EB51EA016B10609F46FC085
:100F20000E945E0780EF0E946907812F0E94690777
:100F3000802F0E9469070F5F1F4FF70181917F018A
:100F40000E9469070E945407E7CF5B01A40EB51EFB
:100F50008433C1F40E945E0719830A838D2D806853
:100F60008B83CC8264E070E0CE0101960E943A0748
:100F7000AE14BF0409F441C0F70181917F010E94C2
:100F80006907F6CF0E945E070F3F110509F028F4AC
:100F900019820A8384E08B830CC017FD17C0198265
:100FA0000A8333E0169507953A95E1F7007E0C60C9
:100FB0000B8386E0C816D104A0F5F701DE01149674
:100FC000EA15FB0599F081918D93FACFC80126E0CF
:100FD000969587952A95E1F7807E19830A830115F6
:100FE000104C10F48461D7CF8C61D5CFB6016D5F02
:100FF0007F4FCE0101960E943A070E945407C60116
:1010000028960FB6F894DEBF0FBECDBFDF91CF910B
:101010001F910F91FF90EF90DF90CF90BF90AF9016
:10102000089563E070E0CE0101960E943A07F7014F
:1010300081917F010E946907AE14BF04C1F7DDCF23
:10104000CF93DF931F92CDB7DEB7898341E050E0A5
:10105000BE016F5F7F4F90E080E00E9470070F90AD
:10106000DF91CF91089590E02091C003233339F4AC
:101070000C96982F990F990F990F80E00895489634
:10108000F8CFDA01E0913103F0E0FE2FEE27E60F12
:10109000F71F90E0982F8827A901BD018E0F9F1F91
:1010A0000C947007CF93DF9300D0CDB7DEB7798370
:1010B0006A8322E030E0AE014F5F5F4F60E170E095
:1010C0000E9441080F900F90DF91CF910895CF9328
:1010D000DF9300D0CDB7DEB779836A8322E030E0BA
:1010E000AE014F5F5F4F64E070E00E9441080F90D7
:1010F0000F90DF91CF910895CF93DF931F92CDB7DB
:10110000DEB72091310330E0322F2227260F371F20
:1011100090E0982F8827498341E050E0BE016F5F3F
:101120007F4F820F931F0E9470070F90DF91CF9126
:101130000895CF93DF931F92CDB7DEB76983DC01AB
:10114000ED91FC910280F381E02D41E050E0BE0181
:101150006F5F7F4F09950F90DF91CF910895FC014C
:101160009485FB018485981303C081E0943008F0D6
:1011700080E00895CF93DF931F92CDB7DEB76983E8
:10118000DC01ED91FC910280F381E02D41E050E023
:10119000BE016F5F7F4F09950F90DF91CF9108954A
:1011A0000895FF920F931F93CF93DF93EB01FC0100
:1011B000178A168A2A81211109C02B81211106C0A4
:1011C0002C81211103C02D81222301F141155105EC
:1011D000E9F08A01FC01F08C80E591E00E945C025C
:1011E000AE014E5F5F4F24E030E06CE070E08F2D89
:1011F0000E944108B8018F2D0E94520881E090E0C2
:10120000DF91CF911F910F91FF90089580E0F7CF6C
:10121000FC01848595850895FC018489958908954C
:101220002BEC31E0FC0131832083FB0140895189A3
:1012300062897389FC0142835383648375830895B3
:10124000DC01ED91FC91048CF58DE02D099490E08A
:1012500080E008958EE00E949F04BC01990F880BE6
:10126000990B0E94503220E030E040EA50E40E94A6
:10127000AF3220E030EC4FE754E40E9407342AE01C
:1012800037ED43E25CE30E9407340895FC01948546
:10129000992369F080819181DC01ED91FC910688B0
:1012A000F789E02D099591E0811101C090E0892F27
:1012B0000895DC011C961C921C978D919C91DC0179
:1012C000ED91FC910488F589E02D0994FC01768765
:1012D00065870895DC01ED91FC9102A0F3A1E02D5A
:1012E000099591E089270895862F089581E0862742
:1012F000089521E0FC018485843008F020E0822FED
:10130000089508950F931F93CF938C01C62F0E94C9
:1013100053066C2F6460C8010E9453066C2F6B7FCC
:10132000C8010E94530683EC90E00197F1F7CF913A
:101330001F910F9108950F931F93CF93DF938C010B
:10134000D62FC42F607F642B0E94820980E1D89F32
:10135000B00111246C2BC801DF91CF911F910F9127
:101360000C948209CF93DF93CDB7DEB728970FB6E1
:10137000F894DEBF0FBECDBF98E0EDE2F1E0DE01F4
:10138000119601900D929A95E1F79091A804961705
:1013900008F46FEF262F30E0220F331F41E050E0BA
:1013A0004C0F5D1F240F351FF9016081680F6068C5
:1013B00040E080EA94E028960FB6F894DEBF0FBEB6
:1013C000CDBFDF91CF910C949B0941E00E949B0916
:1013D00081E090E00895FB0101900020E9F731974A
:1013E000AF01461B570BDC01ED91FC910280F381AC
:1013F000E02D0994CF93DF930E946C03EC016DEC18
:1014000071E081EC93E00E94EB098C0F9D1FDF914E
:10141000CF9108958F929F92AF92BF92EF92FF92D9
:101420000F931F93CF93DF93CDB7DEB7A1970FB67E
:10143000F894DEBF0FBECDBF7C01FA01CB0119A22B
:10144000223008F42AE08E010F5D1F4F822E912C6E
:10145000B12CA12CBF01A50194010E94D633F90142
:10146000CA016A300CF5605DD8016E938D01232BA3
:10147000242B252B79F790E080E0109721F0BD0117
:10148000C7010E94EB09A1960FB6F894DEBF0FBE0C
:10149000CDBFDF91CF911F910F91FF90EF90BF9043
:1014A000AF909F908F900895695CDECF462F50E0FB
:1014B00070E060E02AE00C940A0A8F929F92AF924B
:1014C000BF92CF92DF92EF92FF920F931F93CF9331
:1014D000DF937C018B014C0182E0880E911C570147
:1014E000E5E0AE0EB11CD0E0C0E0F40161914F0127
:1014F000C8010E94560A6C016EE2C8010E9478027F
:101500008C0D9D1DC80FD91F8A149B0471F7F7011C
:101510006581C8010E94560A8C0F9D1FDF91CF91F3
:101520001F910F91FF90EF90DF90CF90BF90AF9001
:101530009F908F900895CF93DF93AC0170E060E0AF
:101540002AE081EC93E00E940A0AEC016DEC71E064
:1015500081EC93E00E94EB098C0F9D1FDF91CF91EE
:1015600008956BE581EC93E00E9478020E940C05DF
:10157000AB01BC012AE081EC93E00E940A0A82E6FA
:1015800091E00C946C036115710511F00C94EB095A
:1015900090E080E00895FB01808191810E94772F87
:1015A00021E0009709F420E02093A303892B69F040
:1015B00081E00E94020460E087E00E94B20960EDD1
:1015C00071E080EA94E00C94C30A80E00E94020477
:1015D00060E087E00E94B20968ED71E0F2CFFB01A4
:1015E000808191810E94772F892B69F081E00E9490
:1015F000FE0360E087E00E94B20961EE71E080EADC
:1016000094E00C94C30A80E00E94FE036AEE71E04D
:10161000F6CF0C944A2EAF92BF92CF92DF92EF9208
:10162000FF920F931F93CF93DF9300D000D0CDB7DD
:10163000DEB78C016B017A018091C0038333E9F43A
:101640005B016801C40ED51EC016D106A9F10E9427
:101650005E078FE00E946907812F0E946907802F33
:101660000E9469070F5F1F4F80E00E946907F50124
:1016700081935F010E945407E7CF843369F50E948C
:101680005E0719830A838F2D8F778B83EC8264E04A
:1016900070E0CE0101960E943A07A70170E060E079
:1016A000C6010E946E35E114F10421F0B701C601B4
:1016B0000E943A070E945407C7010F900F900F90A5
:1016C0000F90DF91CF911F910F91FF90EF90DF90DE
:1016D000CF90BF90AF9008950E945E070F3F110515
:1016E00009F030F419820A831B8263E070E0D1CFE5
:1016F00017FD0BC019820A8333E0169507953A95BA
:10170000E1F7007E08600B83F0CFC80126E09695D4
:1017100087952A95E1F7807E19830A830115104C7D
:1017200018F480618B83E1CF8861FCCFCF93DF9386
:101730001F92CDB7DEB72091310330E0322F222740
:10174000260F371F90E0982F882741E050E0BE0118
:101750006F5F7F4F820F931F0E940B0B89810F9049
:10176000DF91CF910895CF93C82F462F61E070E0AD
:101770000E947C0861E070E08C2F0E94960B811122
:10178000F9CFCF910895CF93C82F80E591E00E94C3
:101790005C0268E070E08C2FCF910C94B30BCF9378
:1017A000C82F80E591E00E945C0260E170E08C2F20
:1017B000CF910C94B30BCF93DF93EC01888D8430E1
:1017C00020F40E94CF0B84E0888FDF91CF910895A1
:1017D000CF93C82F80E591E00E945C0263E070E047
:1017E0008C2FCF910C94960BCF93DF93EC018C85CB
:1017F0008430D0F40E94E80B843189F0882379F09A
:10180000883169F021E08C3159F4E881F981008454
:10181000F185E02DCE01099521E0892B09F420E026
:10182000822FDF91CF91089580E0FBCFCF92DF929E
:10183000EF92FF92CF93DF93EC018C85843068F4B4
:101840000E94C30B0E940C056B017C018C850E94D9
:10185000E80B811109C084E08C87DF91CF91FF9064
:10186000EF90DF90CF90089561E070E080E090E02D
:101870000E94D9040E940C05AB01BC014C195D0902
:101880006E097F098D859E85B0E0A0E04817590755
:101890006A077B07D8F28C850E94CF0BDCCFCF93F1
:1018A000FC01C08D80E591E00E945C0260E270E086
:1018B0008C2F0E94B30B62E070E08C2F0E94960B7D
:1018C00084FD16C062E070E08C2F0E94960B83FFAF
:1018D0000AC048E162E070E08C2F0E947C0880E042
:1018E00090E0CF91089580E591E00E945C02E3CF03
:1018F00040E162E070E08C2F0E947C0881E0F0CF34
:10190000CF93DF931F92CDB7DEB741E050E0BE0129
:101910006F5F7F4F90E080E00E940B0B89810F90FA
:10192000DF91CF910895CF93DF93C4E1D0E00E947F
:10193000800C882361F061E070E080E090E00E941C
:10194000D9042197A1F780E0DF91CF91089581E03C
:10195000FBCF1F93CF93DF931F92CDB7DEB7182F26
:1019600080E591E00E945C02812F0E94330827E00D
:10197000129FF0011124EC55FC4F22813381377006
:1019800041E050E0BE016F5F7F4F820F931F0E94C6
:101990000B0B89810F90DF91CF911F910895FC016E
:1019A000808D843040F4218D328D232B21F00E94D4
:1019B000A90C90E008958FEF9FEF0895CF93DF93E8
:1019C000FC012485243028F08FEF9FEFDF91CF9129
:1019D0000895EC010190F081E02D0084F185E02D67
:1019E0000995892B89F38C850E94A90C90E0EECF94
:1019F000DA01E0913103F0E0FE2FEE27E60FF71F4A
:101A000090E0982F8827A901BD018E0F9F1F0C948D
:101A10000B0B8F929F92AF92BF92CF92DF92EF9279
:101A2000FF921F93CF93DF93CDB7DEB72C970FB6FE
:101A3000F894DEBF0FBECDBF2091C00314E0222377
:101A400039F16B017C0180E591E00E945C025E014E
:101A500027E0A20EB11C450110E063E070E0812F89
:101A60000E94960BF40181934F01882349F11F5F77
:101A7000143099F710E0F50181915F018D31D9F0B3
:101A80008831C9F08A518230B0F01F5F143099F765
:101A9000812F2C960FB6F894DEBF0FBECDBFDF911D
:101AA000CF911F91FF90EF90DF90CF90BF90AF90BC
:101AB0009F908F90089560E170E0812F0E94B30B9A
:101AC000A12EB12C83EE93E00197F1F742E870E08C
:101AD00060E0812F0E947C084FEF62E070E0812F70
:101AE0000E947C08B601C114D10491F480912101B7
:101AF0009091220101968115F0EC9F0708F45CC0DB
:101B00009093220180932101609121017091220123
:101B1000812F0E94670886E0E5E3F1E0DE0111967F
:101B200001900D928A95E1F7F70183818F778C837D
:101B300084818D8385818E83A7014E5F5F4F24E072
:101B400030E06CE070E0812F0E944108B601812FE7
:101B50000E94520826E030E0AE014F5F5F4F66E022
:101B600070E0812F0E94410861E070E0812F0E94A7
:101B7000B30B27E02A9DC0012B9D900D11249C01E1
:101B80002C553C4F7901F9011182108222E030E09E
:101B9000AE01455F5F4F68E270E0812F0E94F80C54
:101BA0008B859C85982789279827F70193838283C3
:101BB0001682158214826CCF80E090ECA1CFCF9278
:101BC000DF92EF92FF920F931F93CF93DF9300D09A
:101BD00000D000D0CDB7DEB78C016B017A01FC01DB
:101BE000808D843010F40E94CF0B8BEC91E09A83AF
:101BF0008983F60182819381A481B5818B839C8343
:101C0000AD83BE83B701CE0101960E94090DF80194
:101C1000808F8430A0F4F586E486128E118E81E0E8
:101C200026960FB6F894DEBF0FBECDBFDF91CF91E1
:101C30001F910F91FF90EF90DF90CF90089580E07B
:101C4000EFCFAF92BF92CF92DF92EF92FF920F93BE
:101C50001F93CF93DF9300D000D000D0CDB7DEB775
:101C6000082F6B0180E591E00E945C029E012F5FCE
:101C70003F4F7901590110E063E070E0812F0E942D
:101C8000960BF50181935F01882341F11F5F1430AA
:101C900099F710E0F70181917F018D31D1F0883102
:101CA000C1F08A518230A8F01F5F143099F7812F5C
:101CB00026960FB6F894DEBF0FBECDBFDF91CF9151
:101CC0001F910F91FF90EF90DF90CF90BF90AF905A
:101CD000089560E170E0812F0E94B30BE12EF12C9A
:101CE00083EE93E00197F1F7402F70E060E0812FE1
:101CF0000E947C084FEF62E070E0812F0E947C0818
:101D0000B601CD2889F4809121019091220101969C
:101D10008115F0EC9F0798F19093220180932101A7
:101D20006091210170912201812F0E94670861E07A
:101D300070E0812F0E94B30B27E02E9DC0012F9DE4
:101D4000900D11249C012C553C4F7901F901118211
:101D5000108222E030E0AE014B5F5F4F68E270E03E
:101D6000812F0E94F80C8D819E81982789279827C2
:101D7000F7019383828316821582148298CF80E0C4
:101D800090ECCACFCF92DF92EF92FF921F93CF9346
:101D9000DF93EC017B016A018C85843048F40E945A
:101DA000E80B882319F08C850E94C30B84E08C8794
:101DB000F70182819381A481B5810097A105B105C6
:101DC00051F490E080E0DF91CF911F91FF90EF9070
:101DD000DF90CF9008958F3F9F4FAF4FBF4F89F354
:101DE0008091C003811103C084E08C87EACF70E04A
:101DF00060E081E20E94210E182F8C87843008F762
:101E000080E591E00E945C02A7014E5F5F4F24E0F5
:101E100030E06CE070E0812F0E944108B601812F14
:101E20000E94520864E070E0812F0E94B30B0E9470
:101E30000C056B017C018C850E94E80B873109F150
:101E40008C31F9F0882309F4BCCF0E940C05AB015A
:101E5000BC014C195D096E097F098D859E85B0E036
:101E6000A0E084179507A607B70738F061E070E097
:101E700080E090E00E94D904DECF8C850E94CF0BD9
:101E8000B3CF81E090E09FCF0F931F93CF93DF9369
:101E9000EC018B01888D843010F40E94CF0B80916F
:101EA000C003811107C094E0988FDF91CF911F91FB
:101EB0000F910895B80182E00E94210E888F84302E
:101EC00030F41D870C871A8E198E81E0EECF80E0EA
:101ED000ECCF7F928F929F92AF92BF92CF92DF9280
:101EE000EF92FF920F931F93CF93DF9300D0CDB764
:101EF000DEB7782E8B014A01590122E030E0AE01B5
:101F00004F5F5F4F64E270E00E94F80CE980FA8056
:101F1000FE24EF24FE24E00EF11E9701377040915D
:101F2000C003072D10E0433309F042C0085F1F4F84
:101F3000102F0027110F110F110FC901800F911FD2
:101F40004733C9F1A9014A0D5B1D4130584098F152
:101F500060E078E06B01C21AD30AA601B4010E94C6
:101F60007007A5014C195D09B4016C0D7D1DC801F8
:101F70000E947007EA0CFB1CF982EA8222E030E042
:101F8000AE014F5F5F4F64E270E0872D0E94410811
:101F90000F900F90DF91CF911F910F91FF90EF90D5
:101FA000DF90CF90BF90AF909F908F907F900895DB
:101FB000005F1F4FBDCFA501B401DACFEF92FF92B2
:101FC0001F93CF93DF9300D0CDB7DEB7182F22E059
:101FD00030E0AE014F5F5F4F60E270E00E94F80CAE
:101FE000E980FA80FE24EF24FE2422E030E0AE01F6
:101FF0004F5F5F4F60E270E0812F0E94F80C898193
:102000009A81982789279827E816F90689F487E0A6
:10201000189FF0011124EC55FC4FF582E482C701B2
:102020000F900F90DF91CF911F91FF90EF90089547
:102030007C01DBCF1F93CF93DF93182F80E591E0D6
:102040000E945C02812F0E94DE0FEC0163E070E0D1
:10205000812F0E94960B873121F08C3111F0D0E056
:10206000C0E0CE01DF91CF911F910895CF93DF9310
:10207000EC018C85843060F40E94E80B873111F00C
:102080008C3131F48C850E941A108115984088F3A8
:10209000DF91CF910895FC018485843010F40C9475
:1020A0001A1090E080E008959F92AF92BF92CF9275
:1020B000DF92EF92FF920F931F93CF93DF938C01E8
:1020C0005B01942EE52EFC01C688D788F08C80E554
:1020D00091E00E945C028F2D0E94DE0FC92DDE2D43
:1020E0008C179D0708F4EC019E01A501B6018F2D08
:1020F0000E94690FF801868997898C0F9D1F978B25
:10210000868BCE01DF91CF911F910F91FF90EF90C1
:10211000DF90CF90BF90AF909F9008958F929F9245
:10212000AF92BF92CF92DF92EF92FF920F931F93E5
:10213000CF936C015B018A01FC01C485C430F0F5CA
:102140007A014130584018F0E12C88E0F82E80E503
:1021500091E00E945C028C2F0E94DE0F4C0163E034
:1021600070E08C2F0E94960B873111F08C3149F56D
:102170008E149F0460F380E591E00E945C02970159
:10218000A50170E060E08C2F0E94690F60E270E0B2
:102190008C2F0E94B30B62E070E08C2F0E94960B94
:1021A00084FD17C063E070E08C2F0E94960B8111B4
:1021B0000BC081E090E0F6019383828310E000E0A1
:1021C00010C0F12CE12CD7CF80E591E00E945C0299
:1021D000E2CF40E162E070E08C2F0E947C08EF28A3
:1021E00041F3C801CF911F910F91FF90EF90DF90C5
:1021F000CF90BF90AF909F908F900895FF920F93D4
:102200001F93CF93DF9300D0CDB7DEB7F82E22E037
:1022100030E0AE014F5F5F4F66E270E00E94F80C65
:1022200009811A8110270127102722E030E0AE0132
:102230004F5F5F4F66E270E08F2D0E94F80C89813E
:102240009A819827892798270817190749F4C80100
:102250000F900F90DF91CF911F910F91FF900895F4
:102260008C01E3CF1F93CF93DF93182F87E0189F44
:10227000E0011124CC55DC4F88819981009761F4ED
:1022800080E591E00E945C02812F0E94FE102E8169
:10229000821B910999838883DF91CF911F910895C3
:1022A000FC018485843010F40C94321190E080E0BD
:1022B00008954F925F927F928F929F92AF92BF92BA
:1022C000CF92DF92EF92FF920F931F93CF93DF9302
:1022D00000D0CDB7DEB7782E6B014A01A82EB12C05
:1022E00027E0829FC0011124FC01EC55FC4F7F01C7
:1022F0000081118180E591E00E945C0208151905BA
:1023000054F4872D0E94FE10F70126818C01021BD8
:102310001109118300830115110529F563E070E0AF
:10232000872D0E94960B843159F0882349F001E0F3
:1023300010E08C3111F410E000E0119501951109C5
:10234000C8010F900F90DF91CF911F910F91FF90D7
:10235000EF90DF90CF90BF90AF909F908F907F9045
:102360005F904F900895801691060CF4840187E0E9
:102370008A9DF0018B9DF00D1124EC55FC4FE280FD
:10238000F380C114D10451F12701F7E05F22872DBA
:102390000E943308840D951D2091C003273309F452
:1023A00053C09801240D351D2130384008F44CC02D
:1023B00020E038E0490184189508A401B6010E9484
:1023C0000B0B2601480C591C6801C818D908872D29
:1023D0000E943308A601B2010E940B0BE00EF11E11
:1023E00087E08A9DF0018B9DF00D1124EC55FC4F88
:1023F000F382E28220813181201B310B31832083E3
:102400008681800F912F911D8A3F910510F4232B17
:10241000F1F487E08A9DF0018B9DF00D1124EC55BD
:10242000FC4F1682F982EA8222E030E0AE014F5F73
:102430005F4F68E270E0872D0E94410860E470E021
:10244000872D0E94B30B7CCFA801B601C5CF868330
:1024500077CFCF93DF93FC01218D328D211531058C
:1024600029F48FEF9FEFDF91CF910895EC01808DDC
:102470004217530708F0A9010E94591118161906AE
:1024800084F7298D3A8D281B390B3A8F298FEBCF92
:102490000F931F93CF93DF931F92CDB7DEB7FC014D
:1024A000218D328D232B41F48FEF9FEF0F90DF9121
:1024B000CF911F910F9108958C0141E050E0BE0132
:1024C0006F5F7F4FFC01808D0E945911181619060D
:1024D0005CF7F801818D928D0197928F818F8981B0
:1024E00090E0E4CFCF93DF931F92CDB7DEB741E00A
:1024F00050E0BE016F5F7F4FFC0184850E9459113F
:102500001816190634F4898190E00F90DF91CF916D
:1025100008958FEF9FEFF9CFFC018485843010F48C
:102520000C94591190E080E008950F931F93CF937E
:10253000DF9300D0CDB7DEB7FC0124852430E0F472
:102540008C0180E591E00E945C0222E030E0AE0167
:102550004F5F5F4F60E170E0F80184850E94F80CE6
:1025600089819A819827892798270F900F90DF916A
:10257000CF911F910F91089590E080E0F6CF0F93D7
:102580001F93CF93DF9300D0CDB7DEB7FC01248536
:102590002430E0F48C0180E591E00E945C0222E0AE
:1025A00030E0AE014F5F5F4F64E070E0F80184857A
:1025B0000E94F80C89819A819827892798270F9083
:1025C0000F90DF91CF911F910F91089590E080E0DF
:1025D000F6CFDC018BEC91E08D939D9384E0FB01C1
:1025E00001900D928A95E1F70895EF92FF920F9373
:1025F0001F93CF93DF9300D000D0CDB7DEB78C010F
:102600007B01FB0184858430A8F08BEC91E0F8011C
:10261000918380831282138214821582C8010F90E5
:102620000F900F900F90DF91CF911F910F91FF901E
:10263000EF90089580E591E00E945C0224E030E094
:10264000AE014F5F5F4F6CE070E0F70184850E9440
:10265000F80CBE016F5F7F4FC8010E94E912DECF08
:102660000F931F93CF93DF93CDB7DEB728970FB6A5
:10267000F894DEBF0FBECDBF8C01D80159964D91A5
:102680005C915A974115510551F0ED91FC91048CE4
:10269000F58DE02D70E060E0C8010995EECFF801FE
:1026A000808D0E943211892BB1F148E050E0BE01CB
:1026B0006F5F7F4FD80158968C910E945911181660
:1026C0001906F4F4D801509684E0FE013196019089
:1026D0000D928A95E1F78D8190E0982F88272E81C1
:1026E000820F911DF801958B848B8F81282F30E00C
:1026F000322F22278885820F932F911D928F818FF1
:1027000028960FB6F894DEBF0FBECDBFDF91CF91F4
:102710001F910F91089590E080E0F2CF4F925F9269
:102720006F927F928F929F92AF92BF92CF92DF92E1
:10273000EF92FF920F931F93CF93DF93CDB7DEB746
:1027400063970FB6F894DEBF0FBECDBF7C016B015F
:102750003A01FB0120E090E080E06AE03191332310
:1027600009F461C040ED430F4A3008F04DC0689F46
:10277000A001699F500D1124CA01C097830F911DBC
:1027800037FD9A958F3F910549F340F3F701428158
:102790005381648175818091960490919704A091F2
:1027A0009804B0919904481759076A077B0709F400
:1027B0000DC28701085F1F4F0E940C056F707727BD
:1027C0007C5FC8010E94440F813009F004C28BEC89
:1027D00091E09A838983F70182819381A481B581F5
:1027E0008B839C83AD83BE8345E350E0BE016F5F66
:1027F0007F4FC8010E94D108892BA9F5D12CC12C8B
:10280000C8010E94DB0B17C03E3209F0BFCF233056
:1028100009F4BCCFD301A20FB11D12968C932F5F88
:1028200090E080E09BCF233009F0B0CFF3018583A7
:10283000CC24C394D12CC60163960FB6F894DEBFA6
:102840000FBECDBFDF91CF911F910F91FF90EF9001
:10285000DF90CF90BF90AF909F908F907F906F90C0
:102860005F904F9008950E940C05F701778366836F
:1028700042E050E0B7016A5F7F4FC8010E945410E8
:1028800081E090E09A83898342E050E0BE016F5F6F
:102890007F4FC8010E94541080E091E09A838983A1
:1028A00042E050E0BE016F5F7F4FC8010E945410AC
:1028B0001A82198242E050E0BE016F5F7F4FC8016B
:1028C0000E94541042E050E0BE016F5F7F4FC8018C
:1028D0000E94541042E050E0BE016F5F7F4FC8017C
:1028E0000E9454105601F6018081882301F1650190
:1028F000F60181912F01882311F08E32B1F4460147
:102900008A189B081814190474F48D8641E050E06D
:10291000BE01635F7F4FC8010E945410A401B5013E
:10292000C8010E9454105201DECF6201E1CF1D8622
:1029300041E050E0BE01635F7F4FC8010E94541028
:10294000C12CDD24D394DA82C98242E050E0BE017A
:102950006F5F7F4FC8010E945410DA82C98242E043
:1029600050E0BE016F5F7F4FC8010E945410C80144
:102970000E944F0C892B09F441CFF3E0AF2EB12C0C
:10298000230122E0420E511CD4C0F7014281538141
:1029900064817581808D918DA28DB38D4817590703
:1029A0006A077B0709F008C1848D958DC59709F0EA
:1029B00003C181A192A15DEFC52EDD24DA940C97AD
:1029C0000CF4ADC04CE050E0BE016F5F7F4FC8011A
:1029D0000E9429128B819C819827892798279A8B9E
:1029E000898BF7014681578129813A814217530724
:1029F00009F0E7C097FFE5C08F7092703BEFC32EE0
:102A0000DD24DA94892B09F08AC06F8078847624DB
:102A1000672476242AEFC22EDD24DA94611471042F
:102A200009F47DC0D12CC12C8D819E8198278927E6
:102A30009827C816D906F8F441E050E0BE01635F5C
:102A40007F4FC8010E9429124D85442331F050E088
:102A500070E060E0C8010E9429128D858111ECCFE1
:102A600044E050E070E060E0C8010E942912FFEFEE
:102A7000CF1ADF0AD9CF912C812C41E050E0BE0162
:102A80006D5E7F4FC8010E9429124B89842F807C84
:102A900009F06CC0442331F050E070E060E0C80100
:102AA0000E9429128B898111E8CF42E050E0BE01DB
:102AB000615F7F4FC8010E94291242E050E0BE01D1
:102AC000635F7F4FC8010E94291244E050E070E02C
:102AD00060E0C8010E94291242E050E0BE016F5E32
:102AE0007F4FC8010E9429128F85988949895A8988
:102AF0008115914009F043C0CD84DE84DC24CD24CF
:102B0000DC2481E0C816D104D1F54115544009F008
:102B10004AC044E050E0B201C8010E94291221E0FD
:102B2000A21AB10809F46CCEFFEFCF16DF0609F048
:102B300067CE0E940C053B014C01C8010E94301376
:102B4000181619060CF421CF0E940C056619770996
:102B500088099909693873418105910548F562E34F
:102B600070E080E090E00E94D904E7CF41E050E0BF
:102B700070E060E0C8010E9429121B8A93CF54279D
:102B80004527542770E060E0C8010E942912FFEF3A
:102B90008F1A9F0A6814790409F06FCF96EFC92E37
:102BA000DD24DA94BCCFE7EFCE2EDD24DA94B7CF64
:102BB000CC24CA94DC2CB3CF6EEFC62EDD24DA947D
:102BC000AECF4CEFC42EDD24DA94A9CF8EEFC82E01
:102BD000DD24DA9430CED12CC12C2DCECF92DF92D1
:102BE000EF92FF920F931F93CF93DF93CDB7DEB792
:102BF000AF970FB6F894DEBF0FBECDBF7C016A0160
:102C00000BEC11E01A8309831C861B8688EE93E087
:102C1000A0E0B0E08D879E87AF87B88B8FE391E00F
:102C20009A878987188F0F8B198E1A8E1B8E1C8E90
:102C300084E089A31BA70AA71CA61DA61EA61FA683
:102C400080918A0490918B04A0918C04B0918D04A2
:102C50008EA39FA3A8A7B9A78B839C83AD83BE83B4
:102C600018861F82AE01465D5F4FCE0101960E941D
:102C70008E1381309105B1F4D701ED91FC91048858
:102C8000F589E02D1DA30CA38CA59DA5AEA5BFA520
:102C90008EA39FA3A8A7B9A7A601BE016C5D7F4F15
:102CA000C7010995AF960FB6F894DEBF0FBECDBF32
:102CB000DF91CF911F910F91FF90EF90DF90CF9018
:102CC0000895CF92DF92EF92FF920F931F93CF93CD
:102CD000DF93CDB7DEB7AF970FB6F894DEBF0FBE68
:102CE000CDBF8C016B017A018BEC91E09A838983D3
:102CF0001B821C821D821E821C861B8648EE53E0AE
:102D000060E070E04D875E876F87788B2FE331E05E
:102D10003A872987988F8F8B198E1A8E1B8E1C8E5F
:102D200024E029A39BA78AA71CA61DA61EA61FA652
:102D3000D8011C968C91843060F40E94E80B8823A3
:102D400021F0F80184850E94C30B84E0D8011C9611
:102D50008C9380918A0490918B04A0918C04B09103
:102D60008D048EA39FA3A8A7B9A78B839C83AD8353
:102D7000BE8318861F82AE01465D5F4FB601CE014D
:102D800001960E948E130097C1F0D801ED91FC913D
:102D90000684F785E02D8BEC91E09DA38CA38CA598
:102DA0009DA5AEA5BFA58EA39FA3A8A7B9A7A70160
:102DB000BE016C5D7F4FC8010995AF960FB6F894C0
:102DC000DEBF0FBECDBFDF91CF911F910F91FF905E
:102DD000EF90DF90CF9008957F928F929F92AF9265
:102DE000BF92CF92DF92EF92FF920F931F93CF93F8
:102DF000DF93CDB7DEB7A6970FB6F894DEBF0FBE50
:102E0000CDBF8C01762E942E852E20E2A22ECE01EF
:102E100001967C01DC01EA2D1D92EA95E9F7680133
:102E2000F3E4CF0ED11C8BEC91E09AA389A38FEF32
:102E30008BA38CA38DA38EA343E450E0BE016F5DF2
:102E40007F4FC6010E94D108019609F4BFC081E0FE
:102E500089838A8386E0B82EBB821C82D8011496AF
:102E60006D917D918D919C9117970E948E346D8309
:102E70007E838F83988789869A8680E890E09C87F6
:102E80008B874CE150E0B701C6010E945410FE014F
:102E900037968AE1DF011D928A95E9F74801B8E08B
:102EA0008B0E911CF401D70101900D92BA94E1F7B9
:102EB00040E150E0B701C6010E945410F7011192A1
:102EC000AA94E9F796E0A92EB12C40E250E0B701B0
:102ED000C6010E945410F1E0AF1AB108B1F783E6C1
:102EE000898392E89A8393E59B838C8385E38D8322
:102EF00081E08E837F829DE3988797E099878A8718
:102F000086E0F401DE011B9601900D928A95E1F7AF
:102F10008CE0898B8A8B64EF71E0CE0143960E942E
:102F20007E35D8011B966C91CE0149960E945F02B6
:102F3000F8016485CE014B960E945F02D8011D9670
:102F40006C91CE014D960E945F024EE150E0B701B8
:102F5000C6010E945410B3E07B121EC082E3898335
:102F600084E08A83F80196859B8397859C8390896A
:102F70009D8391899E8396E39F838887828D89872D
:102F8000838D8A87848D8B87858D8C874CE050E07C
:102F9000B701C6010E94541087E3898386E08A83C3
:102FA00091E09B8393E09C838D838FE08E838AE303
:102FB0008F838BE388878FEF898749E050E0B701E3
:102FC000C6010E945410C6010E944F0CA6960FB66F
:102FD000F894DEBF0FBECDBFDF91CF911F910F914F
:102FE000FF90EF90DF90CF90BF90AF909F908F9029
:102FF0007F9008950F931F93CF93DF93EC01FB0114
:1030000001900020E9F78F01061B170B8A819B8135
:10301000A801480F591F2C813D812417350768F0FE
:1030200028813981A801820F931F0E9465354A814A
:103030005B81400F511F5B834A83DF91CF911F91CA
:103040000F9108950F931F93CF93DF93EC01888125
:103050009981009759F02A813B812617370730F074
:1030600081E0DF91CF911F910F9108958B016F5FE8
:103070007F4F0E949B34009759F0998388831B836C
:103080000A832C813D81232B59F7FC011082E8CF64
:1030900080E0E7CF85ED8093BC008091FE029091A7
:1030A000FF02A0910003B09101030796A11DB11D7D
:1030B00023E0B695A795979587952A95D1F7209106
:1030C000BC0024FD03C01092FC0208954091FE0252
:1030D0005091FF026091000370910103452B462B34
:1030E000472B69F30097A105B10541F02AE22A9523
:1030F000F1F700C00197A109B109E1CF8091FD026C
:103100000C94AD053F924F925F926F927F928F9297
:103110009F92AF92BF92CF92DF92EF92FF920F9366
:103120001F93CF93DF93CDB7DEB7EA970FB6F8942E
:10313000DEBF0FBECDBF7C012A013B0169010E94A9
:103140000C054B015C0187010D5B1F4FC8010E94FC
:103150003013181619069CF00E940C05681979099D
:103160008A099B09461657066806790608F466C15F
:1031700062E370E080E090E00E94D904E7CF42E291
:1031800050E0BE016F5F7F4FC8010E942912898104
:103190008230D1F0312C832DEA960FB6F894DEBF41
:1031A0000FBECDBFDF91CF911F910F91FF90EF9098
:1031B000DF90CF90BF90AF909F908F907F906F9057
:1031C0005F904F903F900895F801848995898334EA
:1031D000910501F76D817E818F8198850E948E34E3
:1031E0004B015C01F60180829182A282B38246E0AB
:1031F00050E0B701685F7F4FCE014D960E94583571
:10320000892B41F6F70180819181A281B3818816D3
:103210009906AA06BB0608F4BDCF84819581A681D4
:10322000B78188159905AA05BB0508F4B3CF89892C
:103230009A89AB89BC8986879787A08BB18B4EEC26
:1032400050E070E060E0C8010E942912312CC701F3
:10325000829698AB8FA7F701B696FAABE9AB0896C2
:103260009CAB8BAB67019AE1C90ED11CBD96FEAB3E
:10327000EDABC701429698AF8FABFD97FAAFE9AFC0
:103280004701FEE18F0E911CF801818D928D181679
:1032900019060CF080CFC8010E94481283339105B3
:1032A00009F4B2C014F58130910509F464C044F406
:1032B000892B51F3C8010E944812AC01552775C0F3
:1032C0008330910509F462C00697A1F7C8010E94F6
:1032D0004812B82E44E050E0B401C8010E942912FF
:1032E000EB2DE450FF0BAF0160C08A33910509F468
:1032F0005FC084F585339105B1F1C697D9F6C80151
:103300000E9448125C01B601CE0189960E94E91222
:103310008BA59CA5ADA5BEA5892B8A2B8B2BB1F0C7
:10332000EDA9FEA94080518062807380B601CE0174
:1033300083960E94E9128DA19EA1AFA1B8A5A50117
:10334000481659066A067B0609F0B8CF44E050E0FB
:10335000B60118C08B33910509F440C08F3F910529
:1033600009F492CFA7CFC8010E944812C8010E9459
:103370004812382E89CFC8010E94481244E050E01C
:103380006FA978ADC8010E9429127ECFC8010E94A2
:103390004812B82E44E050E069AD7AADC8010E94F1
:1033A00029128B2D8450990BAC0170E060E0EACFBC
:1033B000C8010E94481244E050E069A97AA9C801F6
:1033C0000E942912F70166A177A180A591A50E940C
:1033D0008E3466A377A380A791A756CFC8010E9419
:1033E000481244E050E06BA97CA9C8010E94291250
:1033F000F70162A573A584A595A50E948E3462A7E6
:1034000073A784A795A740CFC8010E94481244E043
:1034100050E06FA578A9C8010E942912F70162A1A6
:1034200073A184A195A10E948E3462A373A384A387
:1034300095A366A777A780AB91AB26CF33243A94A8
:10344000AACE0F931F93CF93DF93CDB7DEB76297CA
:103450000FB6F894DEBF0FBECDBF8C01CB014AE0A2
:10346000BE016F5F7F4F0E94C52FBE016F5F7F4F10
:10347000C8010E94FA1762960FB6F894DEBF0FBE1D
:10348000CDBFDF91CF911F910F9108953F924F9241
:103490005F926F927F928F929F92AF92BF92CF92E4
:1034A000DF92EF92FF920F931F93CF93DF93CDB7ED
:1034B000DEB7A1970FB6F894DEBF0FBECDBF5C019B
:1034C0000DB71EB719A308A360E070E0CB010E94FE
:1034D000D904D50157968D919C915897912C0297BC
:1034E00009F4BFC356968C9156978F5F56968C936E
:1034F000569754962D913C91232B19F0992493942F
:10350000A9C38330D8F7F501808191810E944609D3
:10351000882309F47FC38E010F5F1F4F3801D50147
:10352000ED91FC9180819181DC01ED91FC91008411
:10353000F185E02D0995181619060CF06BC3D5011D
:10354000ED91FC9145E050E0BE01695E7F4F8081C6
:1035500091810E941805009711F3059709F074C036
:10356000888D998D982789279827998F888FEA8C3D
:10357000FB8CFE24EF24FE24FB8EEA8E892B09F4BB
:1035800063C08F89811173C00E940C05F5016683A9
:103590007783808791872789308D8A8D9B8D232B18
:1035A00009F061C0288D398D2130310509F05BC0EB
:1035B00089309105E1F1883C910519F0049709F0F3
:1035C00047C00E94B10A8EEF92E00E946C03D501C1
:1035D00016964D915D916D917C9119971E968D91E6
:1035E0009D910D90BC91A02D481B590B6A0B7B0B34
:1035F0002AE081EC93E00E940A0A89EF92E00E949F
:10360000FA09F50186819781A085B185868797871C
:10361000A08BB18B01E010E0108F078BC5010E94D9
:10362000932360E070E0CB010E94D90478CF0E9420
:10363000B10A8AE294E00E94FA0983E090E0D501A1
:1036400058969C938E935797D5018D919C91FFC26C
:103650000E94B10A83E194E00E946C038A8D9B8DE5
:103660000E949B0AF1CF059709F059CFEDCFB1E049
:10367000EB16FB0690F00E94B10A82E094E00E94F3
:103680006C038A8D9B8D0E949B0AF501108E178A10
:10369000808191810E94590942CF8DB69EB6C701A3
:1036A00001960DB71EB7081B190B0FB6F8941EBF75
:1036B0000FBE0DBF0F5F1F4FD501ED91FC91A7010C
:1036C000B801808191810E9418058E159F0509F02F
:1036D0007BC0EA8DFB8DE00FF11F10820E940C056C
:1036E000F50166837783808791878F89813109F41B
:1036F0007CC2A0F58630F1F08F3009F4D7C082305B
:1037000099F5D50157968D919C91892B99F40E943A
:10371000B10A8CEF93E00E94FA0901E010E0F50194
:10372000108F078BC5010E94932360E070E0CB01EE
:103730000E94D904488D598DD12CC12CF12CE12C3B
:1037400008EC10E030E020E060E0C5010E949A1F24
:103750000FB6F8949EBE0FBE8DBEE1CE8D3189F2BC
:1037600058F4843109F4A2C0F501108E178A8081C3
:1037700091810E945909ECCF893281F08733A1F7FA
:103780008A8D9B8D892B21F30E94B10A83EE93E0F1
:103790000E946C03C8010E945E23DACF8481958168
:1037A000892B39F480E490E00E94AE2DF5019583D9
:1037B0008483EA8CFB8CE00EF11E1A830983FC8261
:1037C000EB820E151F0530F00FB6F8949EBE0FBEAB
:1037D0008DBE3ACF40E450E0B801D50114968D91EA
:1037E0009C910E948535D5011496ED91FC9117AE00
:1037F000C3010E947123FC018081918100E510E0EA
:103800008E159F0570F489819A81009709F44AC04A
:103810002B813C818217930708F044C00E94952FAA
:103820008B010E94B10A8CEE93E00E946C03D501DB
:1038300014966D917C9181EC93E00E94C30A6AE337
:1038400081EC93E00E947802C8010E949B0AF50176
:10385000808191810E945909D501ED91FC911197C8
:1038600014968D919C911597918780871387028775
:1038700058961C921E9257970E940C05DC01CB01B2
:1038800088589341A109B109F50182879387A487DC
:10389000B58786839783A087B18786879787A08B14
:1038A000B18B56CF60E070E0CB01BACF888D998D97
:1038B000D50155969C938E9354974A8C5B8C6801E6
:1038C000C40CD51C1D8F0C8FDF8ECE8E0C151D05E4
:1038D00008F013C1F801E080F180CE014C960E94FF
:1038E0007123DC018D919C918C159D0508F005C11B
:1038F0008C8D9D8DFC012081213459F401960E940C
:10390000772F4EE0342E380E069744F033243A9445
:1039100005C0CE014C960E948423382EF6E7EF16A0
:10392000F2E7FF0609F406C138F531E6E31632E79F
:10393000F30609F4E6C044E6E41642E7F40609F4A7
:1039400078C050E7E5165DE6F50609F037C18C8DC5
:103950009D8D8C159D0508F0D0C0FC01208121347F
:10396000A9F501960E94772F3EE0F32EF80E0697F8
:1039700094F1FF24FA942FC084E6E81687E7F8064E
:1039800009F4A2C096E7E91697E7F90609F4E9C039
:10399000A1E6EA16A7E7FA0609F010C1CE014C9697
:1039A0000E947123DC018D919C918C159D0508F07E
:1039B000A4C061E0832D0E940604CE014C960E94B3
:1039C0008423BC01832D0E94420497C0CE014C96F3
:1039D0000E948423F82ECE014C960E9471230C8DF8
:1039E0001D8D6BEF71E0C8010E94753560E0892B79
:1039F00079F06EEF71E0C8010E947535892B39F0BE
:103A000062E072E0C8010E947535892B49F461E0DB
:103A10008F2D0E940604CE014C960E94712397CFF1
:103A200066E072E0C8010E947535892BA1F762E05B
:103A3000EFCF7A8A698A1C8A1B8A00E110E01E8B0C
:103A40000D8B69E072E0CE0141960E94FA17032DBA
:103A500010E0B801CE0141960E94211AF801E25C03
:103A6000FC4F8491F801E65DFC4FF4900A5E1C4F18
:103A7000F801049160E070E0002389F081110E9458
:103A8000A703E02FF0E0EE0FFF1FE45FFC4FA591CE
:103A9000B491EC91FE2261E070E009F460E0CE01A7
:103AA00041960E94211A0B891C890150110929890C
:103AB0003A89D12CC12CF12CE12C50E040E064E19A
:103AC000C5010E949A1F19C0CE014C960E94712315
:103AD000DC018D919C918C159D0578F461E0832D1E
:103AE0000E940604CE014C960E94842361E0892B3B
:103AF00009F460E0832D0E94D003F501158A148A31
:103B000027CE7A8A698A1C8A1B8AE0E1F0E0FE8B64
:103B1000ED8B6CE072E0CE0141960E94FA17632DA6
:103B200070E0CE0141960E94211A832D0E949F04CD
:103B3000BC01B5CF3982BFE1B315F8F2E32DF0E057
:103B4000EE0FFF1FEE5AFC4F2591349121153105E0
:103B5000A1F2E2E02B353E0781F2C301F90109959C
:103B6000CCCFCE014C960E9471238C8D9D8D9C01F3
:103B7000201B310B421A530A9A8389835C824B8241
:103B80005E824D82398AFFE1F31508F4B6CFE32D4A
:103B9000F0E0EE0FFF1FEE56FC4F259134912115FA
:103BA000310509F4AACF02E02A35300709F4A5CF80
:103BB000B301CE014196F90109959FCF0E94B10A48
:103BC00082ED93E00E946C03C8010E945E23D50140
:103BD00054964D915C91D12CC12CF12CE12C02E03A
:103BE00010E030E020E060E06BCF8A8D9B8D800F8D
:103BF000911F1A8309839C838B830817190708F088
:103C0000A7CDC3010E947123D50155961C921E9227
:103C100054979ECD0E940C052B013C01F50180813B
:103C200091810E944609D50157962D913C91589754
:103C30002130310509F094C0F501811132C046866A
:103C40005786608A718A108E178A808191810E94BE
:103C50005909912CD50156968C91569781505696BC
:103C60008C93892DE8A1F9A10FB6F894FEBF0FBE81
:103C7000EDBFA1960FB6F894DEBF0FBECDBFDF91AA
:103C8000CF911F910F91FF90EF90DF90CF90BF9059
:103C9000AF909F908F907F906F905F904F903F90EC
:103CA000089586819781A085B18593018201081BC3
:103CB000190B2A0B3B0BD901C801893116EF91076B
:103CC000A105B10560F00E94B10A8BE494E00E9466
:103CD000FA09D50158961C921E925797B6CC893C8A
:103CE0009F4AA105B10598F4F50182859385A485C5
:103CF000B58593018201081B190B2A0B3B0BD901D7
:103D0000C801893C9F4AA105B10508F4F7CBF5012C
:103D100086859785A089B18993018201081B190BBB
:103D20002A0B3B0BD901C80181379741A105B10589
:103D300008F4E4CBD12CC12CF12CE12C10E000E0F4
:103D400030E020E050E040E066E0C5010E949A1FAC
:103D5000D5011E964D925D926D927C925197CECB7D
:103D6000232B09F0CBCBF5014685578560897189F6
:103D700093018201041B150B260B370BB901A80117
:103D80008823A9F0413757416105710508F4B6CB86
:103D90000E94B10A8DE394E00E94FA09D5018D9149
:103DA0009C910E945909F501108E178A52CF49380B
:103DB00053416105710508F4A1CB8D919C910E943E
:103DC0005909F50100811181D80118968D919C91B6
:103DD000892BA9F10E94B10A8AEE92E00E946C033D
:103DE000F8016085718581EC93E00E94C30A6AE363
:103DF00081EC93E00E947802D8011A968D919C91F3
:103E00000E949B0AF80180819181428553856085DB
:103E10007185DC01ED91FC910088F189E02D099517
:103E200021E0019709F020E0F801248794849110A3
:103E30005BC0F50146865786608A718A0BCF0E9467
:103E4000B10A8BED92E00E946C03D80114966C913C
:103E500081EC93E00E94560A6EE281EC93E00E94AE
:103E60007802F801658181EC93E00E94560A6EE2C7
:103E700081EC93E00E947802D80116966C9181EC57
:103E800093E00E94560A6EE281EC93E00E94780271
:103E9000F801678181EC93E00E94560A6DEC71E0B5
:103EA00081EC93E00E94EB09D8018D919C91DC019B
:103EB000ED91FC910684F785E02DD8011A964D917D
:103EC0005C911B972BEC31E03A8329831496CD90BB
:103ED000DD90ED90FC901797CB82DC82ED82FE8224
:103EE000BE016F5F7F4F9BCF81E090E0D50153967D
:103EF0009C938E93529712962D913C91F9010190CB
:103F00000020E9F731978F01021B130BD12CC12C34
:103F1000F12CE12C41E050E06DE1C5010E949A1FB7
:103F2000F50182859385A485B58586879787A08BC3
:103F3000B18B90CE2F923F924F925F926F927F9271
:103F40008F929F92AF92BF92CF92DF92EF92FF92A9
:103F50000F931F93CF93DF9300D000D000D0CDB745
:103F6000DEB75C016E834A013901DC018D919C91C1
:103F70000E944609882309F4D3C08E818D7F09F4FD
:103F800001C1BE81B63009F4FDC0BD3109F4FAC0EB
:103F9000F5018789908D019709F0C2C081149104C1
:103FA000B9F4D50154968D909C9055978114910445
:103FB00079F452968D919C915397019609F4C9C05A
:103FC00053969C938E935297D50152968D909C90C8
:103FD0008E818C50893090F5F50182859385A4857A
:103FE000B5854681578160857185481759076A07ED
:103FF0007B0710F4AC01BD011A012B01F2E42F0E76
:10400000311C411C511C0E940C05A2019101261B70
:10401000370B480B590BDA01C901B7FDA0C0C50128
:104020000E94461A0E940C05A2019101261B370B23
:10403000480B590BDA01C901B7FFF1CFC80105964A
:104040006114710411F485E090E0512C412CE114CD
:10405000F10409F02601480E591EBE81B983982447
:10406000892498249B828A82C8018C0D9D1D9827E3
:10407000892798279D838C83D501ED91FC918081C0
:104080009181DC01ED91FC910280F381E02D45E00E
:1040900050E0BE016F5F7F4F09954C0160E070E01A
:1040A000CB010E94D904BE81BB2381F1011511050A
:1040B000A9F0D501ED91FC9180819181DC01ED9118
:1040C000FC910280F381E02DA801B3010995880ECF
:1040D000991E60E070E0CB010E94D904C114D104A4
:1040E000A9F0D501ED91FC9180819181DC01ED91E8
:1040F000FC910280F381E02DA601B7010995880E9D
:10410000991E60E070E0CB010E94D90484149504EC
:1041100079F1F501108E178A808191810E945909E9
:1041200026960FB6F894DEBF0FBECDBFDF91CF91BC
:104130001F910F91FF90EF90DF90CF90BF90AF90C5
:104140009F908F907F906F905F904F903F902F90B7
:10415000089581E090E0F501938B828B35CFD501F6
:1041600056968C9181116ACFC5010E94461A66CF7E
:104170000E940C05D5011A966D937D938D939C93A7
:104180001D97CECF8114910409F058CF0ACFCF925A
:10419000DF92EF92FF920F931F93CF93DF93CDB7F0
:1041A000DEB7C658D1090FB6F894DEBF0FBECDBF3B
:1041B000CE010196CF57DF4F99838883C158D040F5
:1041C000CD57DF4F19821882C358D04080E890E065
:1041D000CB57DF4F99838883C558D04061E272E0A6
:1041E000CE018F579F4F0E94FA1762E070E0CE0118
:1041F0008F579F4F0E94211A70E060E0CE018F57C9
:104200009F4F0E94211ACD57DF4F08811981C35853
:10421000D04001501109CF57DF4F28813981C15853
:10422000D040D12CC12CF12CE12C50E040E064E1D5
:104230008EE096E00E949A1FCA57DF4F0FB6F8949F
:10424000DEBF0FBECDBFDF91CF911F910F91FF90C9
:10425000EF90DF90CF900895CF92DF92EF92FF9290
:104260000F931F93CF93DF93CDB7DEB7C75AD10912
:104270000FB6F894DEBF0FBECDBF0E942A096B01B6
:104280007C01CE010196CE55DF4F99838883C25AB7
:10429000D040CC55DF4F19821882C45AD04080E8F4
:1042A00090E0CA55DF4F99838883C65AD04061E2B7
:1042B00072E0CE018E559F4F0E94FA1761E070E0C8
:1042C000CE018E559F4F0E94211A8E010F571F4F0E
:1042D00023E045E0C701B6010E94902DB801CE0150
:1042E0008E559F4F0E94FA17CC55DF4F08811981D8
:1042F000C45AD04001501109CE55DF4F2881398171
:10430000C25AD040D12CC12CF12CE12C50E040E01D
:1043100064E18EE096E00E949A1FC955DF4F0FB608
:10432000F894DEBF0FBECDBFDF91CF911F910F91EB
:10433000FF90EF90DF90CF9008951F920F920FB6ED
:104340000F9211242F933F934F935F936F937F931B
:104350008F939F93AF93BF93EF93FF9381EC93E081
:104360000E94FD02FF91EF91BF91AF919F918F91BC
:104370007F916F915F914F913F912F910F900FBE61
:104380000F901F9018951F920F920FB60F92112445
:104390002F938F939F93EF93FF93E091D103F0912D
:1043A000D2038081E091D703F091D80382FD1BC036
:1043B00090818091DA038F5F8F732091DB038217E6
:1043C00041F0E091DA03F0E0EF53FC4F958F8093DA
:1043D000DA03FF91EF919F918F912F910F900FBE74
:1043E0000F901F9018958081F4CF1F920F920FB6F7
:1043F0000F9211242F933F938F939F93AF93BF936B
:104400008091250390912603A0912703B091280362
:104410003091240323E0230F2D3758F50196A11D79
:10442000B11D209324038093250390932603A0932A
:104430002703B09328038091290390912A03A09128
:104440002B03B0912C030196A11DB11D809329036C
:1044500090932A03A0932B03B0932C03BF91AF91A9
:104460009F918F913F912F910F900FBE0F901F90B2
:10447000189526E8230F0296A11DB11DD2CF1F92D9
:104480000F920FB60F9211242F933F934F935F9388
:104490006F937F938F939F93AF93BF93EF93FF930C
:1044A0008091B900887F803609F44AC0F0F58832DF
:1044B00009F4A7C018F5803109F49BC0B8F488232B
:1044C00009F4F9C0883009F494C0FF91EF91BF91CD
:1044D000AF919F918F917F916F915F914F913F919C
:1044E0002F910F900FBE0F901F901895883109F4EF
:1044F00088C0803251F78093FA0214C0803409F4E6
:104500009DC040F48033B9F38833F9F68093FA0202
:1045100085ECB0C0803509F485C0883509F496C0B3
:10452000883499F60E944A18D0CF883909F48CC093
:1045300038F5883729F050F4883611F0803729F69D
:1045400083E08093FC021092D50257C0883809F4AA
:104550007BC0803919F0803809F0B7CF8091D5023F
:10456000803208F071C0E091D50281E08E0F809317
:10457000D5028091BB00F0E0EB54FD4F80833DC03D
:10458000803B39F0E0F4803A09F479C0883A09F0C8
:104590009CCF84E08093FC021092B4021092B3028C
:1045A000E0919D03F0919E0309958091B3028111E2
:1045B0000FC081E08093B3021092930209C0803C47
:1045C00009F4A6CF883C09F4A3CF883B09F07DCF3E
:1045D000E091B40281E08E0F8093B402F0E0ED56DA
:1045E000FD4F80818093BB009091B4028091B30213
:1045F00029C08091D7028093BB0085EC8093BC00DA
:1046000064CF9091F9028091F802981758F5E091E3
:10461000F90281E08E0F8093F902F0E0E852FD4F3D
:104620008081E9CFE091F90281E08E0F8093F90259
:104630008091BB00F0E0E852FD4F80839091F90239
:104640008091F8029817C8F285E8D8CFE091F90276
:1046500081E08E0F8093F9028091BB00F0E0E85278
:10466000FD4F80838091FB0281115CCF81E08093BC
:10467000D60284EA8093BC001092FC0226CF85EC1F
:104680008093BC001092FC028091D502803230F4FD
:10469000E091D502F0E0EB54FD4F10826091D5021D
:1046A00070E0E0919B03F0919C0385EB92E009950B
:1046B0001092D5020ACF1092FA0234CFCF93DF9333
:1046C000BC0181EC93E00E94EB09EC016DEC71E020
:1046D00081EC93E00E94EB098C0F9D1FDF91CF913D
:1046E0000895DC01ED91FC911197309761F01296DD
:1046F0002D913C911397E217F30728F401900020C5
:10470000E9F7ED93FC930895FC0180819181009776
:1047100039F0228133818217930710F40C94772F9C
:1047200090E080E00895AF92BF92CF92DF92EF9237
:10473000FF920F931F93CF93DF93CDB7DEB7CF5B7D
:10474000D1090FB6F894DEBF0FBECDBF5C01CE011C
:1047500086589F4FC654DF4F99838883CA5BD040E9
:10476000C454DF4F19821882CC5BD04080E490E0C3
:10477000C254DF4F99838883CE5BD0406FE072E0F4
:10478000CE0186549F4F0E94FA1764E172E0CE0179
:1047900086549F4F0E94FA1749E750E06DE671E09A
:1047A000CE0101960E94BC2FC454DF4FC880D9802F
:1047B000CC5BD040C654DF4FE880F980CA5BD04064
:1047C00009E710E09E012F5F3F4F50E040E061E1BC
:1047D000C5010E949A1FC154DF4F0FB6F894DEBF87
:1047E0000FBECDBFDF91CF911F910F91FF90EF9042
:1047F000DF90CF90BF90AF900895E1ECF3E013828B
:10480000128288EE93E0A0E0B0E084839583A683D3
:10481000B78329E631E03183208325EC30E035870A
:10482000248724EC30E03787268720EC30E0318B7A
:10483000208B21EC30E0338B228B22EC30E0358B67
:10484000248B26EC30E0378B268B118E128E138E44
:10485000148EEEE5F4E01382128284839583A6839E
:10486000B7838BE791E091838083EAE6F4E08BECF9
:1048700091E0918380831282138214821582E0E793
:10488000F4E0918380831282138214821582E6E71A
:10489000F4E0918380831282138214821582ECE704
:1048A000F4E0918380831282138214821582E2E8FD
:1048B000F4E0918380831282138214821582EEE8E1
:1048C000F4E0918380831282138214821582E8E8D7
:1048D000F4E0918380831282138214821582E4E9CA
:1048E000F4E0918380831282138214821582EAE9B4
:1048F000F4E0918380831282138214821582E9E4AA
:10490000F6E0918380831282138214821582EAE397
:10491000F6E01382128229E931E03183208324E01A
:10492000248728EE33E036872587ADE2B6E013967C
:104930009C938E93129714961D921D921D921C9219
:10494000179719961C921E9218971B961C921E92EE
:104950001A971C961C921C971196FC93EE9340E7B5
:1049600057E160E070E04483558366837783EEE02F
:10497000F6E0B183A083138212821582148216821C
:10498000178210861186128613861486158616865F
:104990001786108A118A138A128A158A148A168A2F
:1049A000108E178A8FEF9FEF90930D0680930C0661
:1049B000E0EAF4E0138212828DE891E09183808333
:1049C00087E2848380E1818782E08287138608956D
:1049D000CF93DF93CDB7DEB7C659D1090FB6F894A0
:1049E000DEBF0FBECDBF789484B5826084BD84B530
:1049F000816084BD85B5826085BD85B5816085BDDA
:104A000080916E00816080936E0010928100809191
:104A10008100826080938100809181008160809319
:104A20008100809180008160809380008091B1003E
:104A300084608093B1008091B00081608093B00069
:104A400080917A00846080937A0080917A008260FD
:104A500080937A0080917A00816080937A008091BF
:104A60007A00806880937A001092C1000E94B10A97
:104A70008DEC92E00E94FA098EEF809327069DEE5E
:104A8000909328062AEB2093290680932A06809388
:104A90002B0690932C0620E031E0D9010D900020E8
:104AA000E9F79D0121503140A0E0B1E0E1E0F0E004
:104AB000AD01405051404217530784F4AF014F5F9E
:104AC0005F4F6D91E25FF94F818D8627818F463070
:104AD000510514F041E050E0FA01EACF80919303D0
:104AE00081112AC010927B0310927A0388EE93E022
:104AF000A0E0B0E080937C0390937D03A0937E03BD
:104B0000B0937F038FE391E09093790380937803D0
:104B10008BEC91E090938703809386031092880337
:104B20001092890310928A0310928B0384E0809381
:104B3000900381E08093930385E393E090933403A3
:104B400080933303809132038111ADC060E372E042
:104B500080E090E00E94D904DFB6F89400E213E010
:104B6000E4E3EE2EE3E0FE2E80913003811125C0B8
:104B7000F8018491F7019491E82FF0E0EE0FFF1F08
:104B8000EE54FD4FA591B4918C91982321F461E0EE
:104B90008AE00E94D00361E08AE00E9406048CB59E
:104BA00080618CBD8CB580648CBD61E08DE00E941D
:104BB000060461E08BE00E940604809130038F5F61
:104BC00080933003DFBEF8010491E02FF0E0EE0F98
:104BD000FF1FE855FD4F8591949190932F0380938B
:104BE0002E03F701E490E0922D0361E08AE00E9439
:104BF00006040E94540780E591E00E945C0284E371
:104C00008093C00380E80E9420080E94930C8823B0
:104C100009F43FC288E00E9420080E94800C88307E
:104C200009F037C280E10E9420080E94800C803188
:104C300009F02FC280E00E9420080E94800C182FEB
:104C4000811127C241E050E0BE016F5F7F4F8FE1CD
:104C500090E00E940B0B8981833009F01AC280E436
:104C60008093310342E06EE170E0812F0E947C0866
:104C700042E06FE170E0812F0E947C081F5F1430DA
:104C800089F740E06EE170E0812F0E947C0840E0EF
:104C90006FE170E0812F0E947C081F5F183089F758
:104CA00081E08093320380E591E00E945C0246E05F
:104CB00050E067E276E089E090E00E9470078BECBC
:104CC00091E09A8389831B821C821D821E8244E0AC
:104CD00050E0BE016D5F7F4F8FE090E00E94700753
:104CE0000091330310913403D80192961D921D92C6
:104CF0001D921C929597F80116A217A210A611A654
:104D00009A961D921D921D921C929D9780E69AEE96
:104D1000A0E0B0E086AB97ABA0AFB1AF80EA9FE078
:104D2000A0E0B0E082AF93AFA4AFB5AFD8011896C2
:104D300086E0FD01282F11922A95E9F79801225F5C
:104D40003F4F94E1F90111929A95E9F7E7E2F6E015
:104D500001900D928A95E1F72C5C3F4FC157DF4FD0
:104D600039832883CF58D040D9011C920E941F2F2D
:104D70002FEC37E040E050E00E946D33DC01CB01C6
:104D80000196A11DB11DF80184839583A683B78385
:104D900080839183A283B3835801F3E4AF0EB11CE7
:104DA000C5010E94DB0B64E470E0C5010E94440F62
:104DB000882309F4DFC10E940C052B013C0148EE59
:104DC000C42E43E0D42EE12CF12C52E0252E912C60
:104DD000812CC157DF4FA881B981CF58D0408C9129
:104DE0008330E1F18111D6C1F80184819581A681DA
:104DF000B7810196A11DB11D84839583A683B783D6
:104E00000E940C056419750986099709A701960186
:104E10000E94D633A90161E0C8010E94EC1681E02E
:104E2000C157DF4FA881B981CF58D0408C93F1E0B2
:104E30008F16910471F20E940C0564197509860998
:104E40009709D801D6962D913D914D915C91D997B6
:104E5000261737074807590708F0B9CFC5010E9440
:104E6000DB0BF80184819581A681B7810196A11D94
:104E7000B11D84839583A683B7830E940C05F80136
:104E8000FE9660837183828393838A94892809F0D4
:104E900071C180E591E00E945C02009133031091A2
:104EA0003403B801625F7F4F9E012F5F3F4F59016E
:104EB000C9010E94E91244E050E0BE016D5F7F4FDE
:104EC0008FE090E00E947007B8016A5E7F4FC501D5
:104ED0000E94E91244E050E0BE016D5F7F4F81E027
:104EE00090E00E947007B8016E5E7F4FC5010E947E
:104EF000E91244E050E0BE016D5F7F4F85E090E035
:104F00000E947007B801625E7F4FC5010E94E912DE
:104F10008B819C81AD81BE8180938A0490938B04A8
:104F2000A0938C04B0938D040E94B4047F7380918D
:104F300021019091220168277927709322016093C3
:104F4000210168EE73E080E090E00E94D9048BECD0
:104F500091E09A8389831B821C821D821E8280E5D8
:104F600091E00E945C0244E050E0BE016D5F7F4F23
:104F70008FE090E00E940B0B0E94B10A8CEB92E054
:104F80000E946C036B8181EC93E00E94560A6EE2F2
:104F900081EC93E00E9478026C8181EC93E00E94A6
:104FA000560A6EE281EC93E00E9478026D8181ECFA
:104FB00093E00E94560A6EE281EC93E00E94780230
:104FC0006E8181EC93E00E94560A6DEC71E081ECF9
:104FD00093E00E94EB0980E091E0909311068093AA
:104FE00010060E940C05DC01CB0188589341A109F1
:104FF000B1098093180690931906A0931A06B093EE
:105000001B068093140690931506A0931606B09382
:10501000170680931C0690931D06A0931E06B0935E
:105020001F060E94B10A88EE91E00E94FA09E09101
:105030000E06F0910F0684E292E09187808780E56A
:1050400090E09387828780910E0690910F060E94D0
:10505000590910922606109225060E940C056B0134
:105060007C018091250690912606019709F471C173
:105070000E940C056C197D098E099F0960357644E4
:105080008105910508F065C18EE096E00E94461A00
:10509000E8CF87E38093C00380E80E9420080E9445
:1050A000930C882329F188E00E9420080E94800C3C
:1050B0008830F1F480E10E9420080E94800C182FB3
:1050C0008031B1F480E00E9420080E94800C8111A0
:1050D0000FC041E050E0BE016F5F7F4F89E390E079
:1050E0000E940B0B8981843019F410933103D8CDC1
:1050F00083E38093C00380E80E9420080E94930C01
:105100008823B1F180E10E9420080E94800C803148
:1051100079F582E10E9420080E94800C823141F5DD
:1051200080E00E9420080E94800C811121C084E050
:105130008093310315E5C257DF4F1883CE58D04016
:1051400041E050E0BE0162577F4F8BE190E00E944A
:105150007007C357DF4F1883CD58D04041E050E06F
:10516000BE0163577F4F8AE190E00E94700798CD9F
:105170001092C0030E94B10A80EC92E00E94FA09EA
:1051800060E177E280E090E00E94D904F0E0E0E0A6
:105190000995FFCF843019F5F80184819581A681A6
:1051A000B7810196A11DB11D84839583A683B78322
:1051B0000E940C056419750986099709A7019601D3
:1051C0000E94D633A90163E0C8010E94EC16C157C2
:1051D000DF4FA881B981CF58D0402C9228CE8130A2
:1051E00079F5F80142AD53AD64AD75AD9E012F5F09
:1051F0003F4FC8010E948218382EF2E08F139EC0E4
:1052000089819A81AB81BC81F80184839583A683CF
:10521000B7830E940C056419750986099709A701CF
:1052200096010E94D633A90163E0C8010E94EC16E2
:10523000C157DF4FA881B981CF58D0403C92F7CDFC
:10524000823009F0F4CDF80142AD53AD64AD75ADD7
:105250009E012F5F3F4FC8010E948218382EF5E053
:105260008F1361C0E3E0C157DF4FA881B981CF58E8
:10527000D040EC93F80182A193A1A4A1B5A1892B00
:105280008A2B8B2B41F424E833E040E050E022A34A
:1052900033A344A355A3F80186A197A1A0A5B1A566
:1052A000892B8A2B8B2B61F482A193A1A4A1B5A198
:1052B000B695A7959795879586A397A3A0A7B1A71D
:1052C000F80182A593A5A4A5B5A5892B8A2B8B2BC4
:1052D000A9F482A193A1A4A1B5A1AC01BD0123E0D1
:1052E00076956795579547952A95D1F7841B950B29
:1052F000A60BB70B82A793A7A4A7B5A7F80186A111
:1053000097A1A0A5B1A586A797A7A0ABB1AB82A591
:1053100093A5A4A5B5A582AB93ABA4ABB5AB8824EC
:105320008394912C84CDF6E08F1308C0C157DF4FD2
:10533000A881B981CF58D0401C9279CDBFEF3B12E4
:1053400076CDC157DF4FE881F981CF58D040108228
:105350006ECD8091250690912606019709F073CEB7
:105360001092A2031092A1031092A00310929F0327
:105370000E948F0585E792E090939E0380939D03A2
:1053800086E792E090939C0380939B031092A50480
:105390008091AA04823018F098E09093A50480933D
:1053A000A80462E370E080E090E00E94D90460917C
:1053B000AB0480EA94E00E94530668EE73E080E05C
:1053C00090E00E94D90460E380EA94E00E948209A0
:1053D0000BE416E4C8010197F1F760E380EA94E07A
:1053E0000E948209C8010197F1F760E380EA94E026
:1053F0000E94820983E592E00197F1F760E280EA7A
:1054000094E00E9482096091A504606240E080EA15
:1054100094E00E949B0984E08093A60440E06CE045
:1054200080EA94E00E949B0940E061E080EA94E019
:105430000E949B090BE31FE1C8010197F1F782E08D
:105440008093A70440E066E080EA94E00E949B0914
:1054500040E062E080EA94E00E949B09C801019765
:10546000F1F788E08093AB0460E080EA94E00E946A
:10547000530640E061E080EA94E00E949B09C80185
:105480000197F1F740E062E080EA94E00E949B0916
:10549000C8010197F1F760E080E00E94B20960E383
:1054A00072E080EA94E00E94C30A61E080E00E941A
:1054B000B20964E372E080EA94E00E94C30A61E00A
:1054C00084E00E94060460E08EEF93E00E94D00327
:1054D00061E085E00E94060460E082E094E00E94C2
:1054E000D00361E083E00E94060480910C06909155
:1054F0000D0697FF22C00E940C05ECEAF4E050E094
:1055000040E026E1249FD001259FB00D11248D019C
:1055100004551B4FD801322F1D923A95E9F760834D
:105520007183828393834F5F5F4F7696403151053D
:1055300049F710920D0610920C0680910C0690917E
:105540000D064097CCF5ECEAF4E090E080E0248191
:105550003581232B09F06FC226813781232B09F077
:105560006AC226E1289F8001299F100D112404554D
:105570001B4F88EE93E0A0E0B0E0F80183879487AA
:10558000A587B6878CE291E2958384831286108A80
:10559000178681E0838B0E940C05D8016D937D9363
:1055A0008D939C93139780910C0690910D06019614
:1055B00090930D0680930C0622242394312C88248A
:1055C0008A94912C8EE096E00E94461A0E940C0567
:1055D000CD56DF4F688379838A839B83C359D0403C
:1055E0003CEAE32E34E0F32E8701F801158A148A91
:1055F00084819581892B29F486819781892B09F4EF
:1056000050C0D8012D913D914D915C911397C15798
:10561000DF4F288339834A835B83CF58D040CD56F0
:10562000DF4F688179818A819B81C359D040621B99
:10563000730B840B950B1B964D905D906D907C9039
:105640001E97641575058605970558F1A30192010B
:105650000E94D633C301B2010E947E34C157DF4F8E
:10566000288139814A815B81CF58D040620F731FF6
:10567000841F951FD8016D937D938D939C931397F1
:1056800053968C915397882361F01F962D913C91EE
:1056900050972115310509F0D5C155963C922E92AF
:1056A00054970A5E1F4F36E00C30130709F09DCF68
:1056B00010E000E0D70154968D919C915597892B6D
:1056C000E9F11A968C911A97882309F4D0C116969D
:1056D000ED91FC91179718968D919C910995F70182
:1056E00084899589029751F580910C0690910D0659
:1056F000892B21F184819581892B21F486819781E1
:10570000892BE1F026E1209FF001219FF00D11246B
:10571000E455FB4FDF011D922A95E9F70E940C0525
:10572000F701608371838283938380910C0690914B
:105730000D06019790930D0680930C060F5F1F4F87
:10574000F6E1EF0EF11C0031110509F0B3CFC95796
:10575000DF4F19821882C758D040C757DF4F1982D0
:105760001882C958D040C557DF4F19821882CB58CC
:10577000D04070E060E0CE0189579F4F0E94221810
:10578000C957DF4F28813981C758D040811174C172
:105790002115310519F0C9010E944A2EC957DF4F62
:1057A00019821882C758D040C557DF4F1982188216
:1057B000CB58D040C757DF4F19821882C958D04004
:1057C0000E942A09CF57DF4F19821882C158D04052
:1057D000CD57DF4F19821882C358D040CB57DF4FC7
:1057E00019821882C558D040850122E044E00E9409
:1057F000902D7C01009709F456C1FC010190002016
:10580000E9F731978F01081B190BB801CE018F57AB
:105810009F4F0E942218CF57DF4F28813981C158EE
:10582000D040811135C12115310519F0C9010E94FF
:105830004A2ECF57DF4F19821882C158D040CB571C
:10584000DF4F19821882C558D040CD57DF4F1982DB
:105850001882C358D040C957DF4F88819981C758F3
:10586000D040009709F42BC1CF57DF4F6881798171
:10587000C158D0406115710509F41FC1C757DF4FEA
:1058800048815981C958D040CB57DF4F2881398191
:10589000C558D0404217530708F40FC10E947E3507
:1058A000CB57DF4F88819981C558D040C557DF4F0E
:1058B00099838883CB58D040CB57DF4F1982188209
:1058C000C558D040CF57DF4F88819981C158D0400B
:1058D000009711F00E944A2E60E082E00E94B20917
:1058E000C557DF4F48815981CB58D040C957DF4F4A
:1058F00068817981C758D04080EA94E00E947F0295
:1059000061E082E00E94B2092AE040E050E0BA0182
:1059100080EA94E00E940A0A8FE00E949F04969514
:10592000879596958795B401681B790B83E00E9453
:10593000420468EE73E080E090E00E94D9040E9487
:105940002A0920E030E04CE052E40E947934181635
:105950000CF05AC08091A303882309F455C010921B
:10596000A30380E00E94020460E087E00E94B20985
:1059700068E372E080EA94E00E94C30ACF57DF4FE9
:10598000B982A882C158D040CD57DF4F1982188202
:10599000C358D04020E830E0CB57DF4F398328830D
:1059A000C558D04061E272E0CE018F579F4F0E94F0
:1059B000FA1766E070E0CE018F579F4F0E94211AC0
:1059C00062E472E0CE018F579F4F0E94FA17CD57C5
:1059D000DF4F08811981C358D04001501109CF57BA
:1059E000DF4F28813981C158D040D12CC12CF12CF6
:1059F000E12C50E040E064E18EE096E00E949A1FC6
:105A00000E94C7200E94C720C957DF4F8881998113
:105A1000C758D040009711F00E944A2E40E050E055
:105A2000452B09F4CFCD0E94E902882309F4CACDA1
:105A30000E940000C7CD019676968031910509F04D
:105A400086CDBACDF801818992898217930708F033
:105A500028CE358A248A0196928B818B82179307F0
:105A600008F41FCE22E030E0358B248B1ACE14963A
:105A7000ED91FC91099533CEC557DF4F19821882FD
:105A8000CB58D0406FEC71E0C9010E947E3598CEB2
:105A9000CB57DF4F19830883C558D040B701C901E0
:105AA0000E947E35D8CECF57DF4F88819981C1586B
:105AB000D040009709F0BBCEBCCE0E944A2ECF57F3
:105AC000DF4F88819981C158D040C957DF4F9983F2
:105AD0008883C758D040CD57DF4F88819981C358FC
